:020000040000FA
:020000000528D1
:06000A00850183160313BB
:1000100000308600860106309F003F308500831245
:100020000508003A03193E280508013A031941283A
:100030000508023A031944280508033A03194C2815
:100040000508043A031928280508053A0319372832
:10005000803086005320860C5320061C2B2801304C
:1000600086005320860D5320861F3228102800302A
:1000700086005320FF308600532010280030860071
:100080001028FF3086001028803086005320860C10
:100090005320061C4728102801308600860D532067
:1000A000861F4E2810282030A1009000A20090004A
:1000B000A300A30B5928A20B5728A10B5528080011
:00000001FF
