:020000040000FA
:020000000528D1
:06000A008501860183164A
:10001000031300308600860106309F003F308500C4
:1000200083120508003A031935280508013A031917
:1000300038280508023A03193B280508033A031932
:100040003E280508043A031941280508053A031912
:1000500044280508063A031947280508073A0319F2
:100060004A280508083A03194D280030860011284F
:1000700005308600112806308600112818308600C9
:1000800011282830860011281D30860011282E30B6
:10009000860011281E30860011282D308600112878
:00000001FF
