:020000040000FA
:020000000528D1
:06000A008501860183164A
:10001000031300308600860106309F003F308500C4
:1000200083120508003A031925280508013A031927
:1000300028280508023A03193A280508033A031943
:100040004C280508043A03195E2800308600112860
:100050000C30A4000C308600702006308600702022
:10006000033086007020093086007020A40B2A28F7
:100070007D2011281830A4000C3086007020063036
:1000800086007020033086007020093086007020C2
:10009000A40B3C287D2011280530A4000C308600DC
:1000A0008A20063086008A20033086008A200930A4
:1000B00086008A20A40B4E287D2011280A30A40037
:1000C000033086008A20063086008A200C308600A5
:1000D0008A20093086008A20A40B60287D20112800
:1000E0001030A1001030A2002030A300A30B76280E
:1000F000A20B7428A10B722808005030A1005030C8
:10010000A2005030A300A30B8328A20B8128A10BCF
:100110007F2808002030A1002030A2002030A3005A
:0E012000A30B9028A20B8E28A10B8C280800A0
:00000001FF
