:020000040000FA
:020000000528D1
:06000A008501860183164A
:10001000031300308600860106309F003F308500C4
:1000200083120508013A03191D280508023A03192D
:1000300027280508043A03193128013086000530C5
:10004000A0003B2086011330A0003B201128013086
:1000500086000F30A0003B208601B930A0003B2075
:100060001128013086001430A0003B208601B430F6
:10007000A0003B2011282008A1000230A20052302D
:10008000A300A30B4128A20B3F28A10B3D28080089
:00000001FF
