:020000040000FA
:020000000528D1
:06000A00A101A201A30107
:10001000850186018316031300309F008601831239
:1000200015201E20272035201028C1309F001F15C5
:1000300030201F1919281E08A1000800C9309F0090
:100040001F1530201F1922281E08A2000800D130D9
:100050009F001F1530201F192B281E08A300080021
:100060002030A000A00B3228080022082102031C27
:10007000402823082102031C4B2801308600080079
:1000800021082202031C352823082202031C4B28C6
:1000900003308600102821082302031C4028220870
:0C00A0002302031C4B28073086001028A8
:00000001FF
