:020000040000FA
:020000000528D1
:06000A008501860183164A
:10001000031300309F003F308500003086008601CA
:100020008312C1309F001F1548201F1915281E0874
:10003000A2003330A202031C36281E08A20066303C
:10004000A202031C39281E08A2009930A202031C38
:100050003C281E08A200CC30A202031C3F281E0828
:10006000A200F330A202031C422845283F3086003C
:1000700013280630860013285B30860013284F3083
:10008000860013286630860013286D3086001328FA
:0A0090001030A100A10B4A2808005F
:00000001FF
