:1000000000308A0018280000233084008313000881
:10001000031917280630F800F701F70B0D28F80B25
:100020000C287B30F700F70B1328800B0A280800F8
:1000300003081F398300813083169900A630980089
:1000400090308312980083161F149F141F159F1160
:10005000831383128C1E2A281A08A0002008303C23
:10006000031D362883168601831286012008313C41
:10007000031D3F2883168601FF3083128600200867
:10008000323C031D61288030A10083168601831253
:10009000210886000230A200FA30A3000420A20B3F
:1000A0004C280310A10C83168601831221088600B8
:1000B0000230A200FA30A3000420A20B5A28210B20
:1000C00051282008333C031D85280130A1008316E8
:1000D00086018312210886000230A200FA30A300B4
:1000E0000420A20B6E282108A10783168601831223
:1000F000210886000230A200FA30A3000420A20BDF
:100100007C282108803C031D73282008343C031DF3
:10011000C7288030A100831686018312210886003B
:100120000230A200FA30A3000420A20B9228031090
:10013000A10C831686018312210886000230A200DA
:10014000FA30A3000420A20BA028210B972801302D
:10015000A100831686018312210886000230A200C6
:10016000FA30A3000420A20BB0282108A1078316AF
:1001700086018312210886000230A200FA30A30013
:100180000420A20BBE282108803C031DB5282008AE
:10019000353C031DE22883168601FF30831286005A
:1001A0000230A200FA30A3000420A20BD22883164A
:1001B0008601831286010230A200FA30A3000420D7
:0801C000A20BDD282A286300D0
:023E00000800B8
:02400E00723FFF
:00000001FF
;PIC16F877
;CRC=2E91  CREATED="31-jul.-21 22:48"
