:1000000001308A004C290000A02ACE204D100A1091
:100010000000202349100A100000263084008313BA
:100020000008031920280630F800F701F70B1628FE
:10003000F80B15287B30F700F70B1C28800B1328D2
:1000400008002C0EF039F7000F3006057704860003
:10005000000006140230F700F70B2C282F280000B0
:10006000061008000608F700060E0F39F800080011
:100070008316061086100611831286100F30831621
:100080000605F038860083120615000006140000ED
:1000900032207808AC000610000006144F285028C3
:1000A000000032207808AB0006100F3083160605DA
:1000B000860083122C0EF700F030F70577082B042A
:1000C000F8007808AB00AB1B3E28291C86102918C5
:1000D000861400000611000006102A0EAB000F3037
:1000E000AB052B08AC0021202A080F39AB00AC006F
:1000F000212008002830A2000C30A3000130A40009
:100100000630A5000610861006110F30831606056E
:1001100086000610861006110F308312A6000D20EF
:100120000130A1002108033C031C9E280330AC00D1
:1001300021200530A6000D20A10A92280230AC0033
:1001400021200530A6000D20A1012108033C031C3D
:10015000B52822302107840083130008A600A901D6
:100160002608AA003820A10AA5288A110A125729B0
:10017000260BBB28BE284030A700BF28A7010130AE
:100180002502A70727088038A800A9012808AA0087
:10019000382008002408073A0319D8280B3A031915
:1001A000DD28063A0319E528023A0319EB28F0285E
:1001B0000130A500A600B820F528A9010130AA0049
:1001C00038200230A6000D20F5280130A5000230AD
:1001D000A600B820F528A9011030AA003820F5287B
:1001E0000130A9002408AA00382008000B08A1004B
:1001F0008B13831603178C170C1400000000831256
:100200000313A11B8B1703170C087F3903194A2905
:100210000313A10003170D080313A20003170F080F
:100220000313A3002108A400CA20220803178D008D
:100230000313230803178F0003130B08A4008B1369
:10024000831603178C170C1400000000831203138D
:10025000A41B8B1703170C0D0E0D7F3903194A29A8
:100260000313A10003170D080313A20003170F08BF
:100270000313A3002108A400CA20220803178D003D
:100280000313230803178F008D0A03198F0A031322
:10029000F62803170313080003081F398300831689
:1002A0001F149F141F159F11831383127A28013086
:1002B000A500A600B820043003178D0000308F0081
:1002C0000313F6200130A5000230A600B820093043
:1002D00003178D0000308F000313F6200230A100B9
:0E02E0009630A6000D20A10B7029572963004F
:02400E00723FFF
:00000001FF
;PIC16F877
;CRC=034F  CREATED="31-jul.-21 22:27"
