:1000000000308A007D280000202A6F32EF39203628
:10001000EF392031693A73106537E3326E32693255
:10002000EF3920050D00202A6F32EF392036EF39E5
:100030002036653273106138E1336132EF392005C3
:100040000D00831603178C170C1400000000831298
:100050000C087F39031967280313A10003170D0843
:100060000313A20003170F080313A30021080C1E9B
:1000700037289900220803178D000313230803175C
:100080008F0083168C170C140000000083120C0DD7
:100090000E0D7F39031967280313A10003170D08FC
:1000A0000313A20003170F080313A30021080C1E5B
:1000B00057289900220803178D00031323080317FC
:1000C0008F008D0A03198F0A0313212803170313C6
:1000D0000800223084008313000803197C280630AE
:1000E000F800F701F70B7228F80B71287B30F70046
:1000F000F70B7828800B6F280800840183131F30CA
:100100008305813083169900A630980090308312C1
:10011000980083161F149F141F159F118601FF302E
:1001200083128600043003178D0000308F00031304
:1001300021200430A100FA30A2006920A10B9B28E5
:100140008316860183128601133003178D00003059
:100150008F00031321200430A100FA30A20069208F
:0A016000A10BAD2883168E28630062
:023E00000800B8
:02400E00723FFF
:00000001FF
;PIC16F877
;CRC=60DF  CREATED="04-ago.-21 23:24"
