:1000000001308A005C290000263084008313000838
:10001000031917280630F800F701F70B0D28F80B25
:100020000C287B30F700F70B1328800B0A280800F8
:100030002B0EF039F7000F3006057704860000001C
:1000400006140230F700F70B2328262800000610BC
:1000500008000608F700060E0F39F800080083169E
:10006000061086100611831286100F3083160605BF
:10007000F0388600831206150000061400002920BF
:100080007808AB0006100000061446284728000038
:1000900029207808AA0006100F308316060586006E
:1000A00083122B0EF700F030F70577082A04F800CA
:1000B0007808AA00AA1B3528281C86102818861440
:1000C0000000061100000610290EAA000F30AA0534
:1000D0002A08AB00182029080F39AA00AB00182005
:1000E00008002830A2000C30A3000130A400063024
:1000F000A5000610861006110F308316060586002F
:100100000610861006110F308312A600042001305D
:10011000A1002108033C031C95280330AB001820E4
:100120000530A6000420A10A89280230AB0018205F
:100130000530A6000420A1012108033C031CAC28C3
:1001400022302107840083130008A600A801260896
:10015000A9002F20A10A9C288A110A126729250BC1
:10016000B228B5284030A600B628A60101302402E6
:10017000A60726088038A700A8012708A9002F2075
:1001800008002408F80123020318C9282308F700EF
:10019000D528F7010830A500A30DF70D2408770234
:1001A0000318F700F80DA50BCC2808002308073A20
:1001B0000319E4280B3A0319E928063A0319F12830
:1001C000023A0319F728FC280130A400A500AF204B
:1001D0000129A8010130A9002F200230A600042027
:1001E00001290130A4000230A500AF200129A80197
:1001F0001030A9002F2001290130A8002308A900F0
:100200002F20080078082108A3006430A400C12032
:100210007708A10078083030031D1529A21C1C297D
:10022000A2191C29221A20301829A21122122214E4
:10023000F8077808A300D6202108A3000A30A400FC
:10024000C1207708A10078083030031D2D29A2199C
:100250003129221C3129221A2030F8077808A300FE
:10026000D6203030A1072108A300D6208A110A1217
:100270008329A21B4B290F30F700210EF7050A3006
:100280007702031846293030F70748292208F70774
:100290007708A300D6200F30A1050A3021020318E9
:1002A000532930305529A2132208A1072108A300A1
:1002B000D6208A110A12902903081F398300831659
:1002C0001F149F141F159F11831383127128083068
:1002D000A100FA30A6000420A10B6929A001831611
:1002E00005148312051C9729A00A2008643C031CEE
:1002F000A0010530A4000130A500AF202008A10016
:100300001330A20002290530A4000230A500AF205E
:100310002030A300D6202008A1005730A2003929A0
:100320000230A100FA30A6000420A10B92296F2907
:02033000630068
:02400E00723FFF
:00000001FF
;PIC16F877
;CRC=3FCF  CREATED="01-ago.-21 00:15"
