:1000000000308A00EA280000FF00030E8301A100EF
:100010000A08A0008A010408A2007708A300780853
:10002000A4007908A5007A08A600831383128C30F7
:100030008400801E1D288C1A2E2822088400230884
:10004000F7002408F8002508F9002608FA0020081F
:100050008A00210E8300FF0E7F0E09008A110A120A
:100060007928831603178C170C14000000008312E4
:100070000C087F39031977280313A90003170D080B
:100080000313AA0003170F080313AB0029080C1E63
:10009000472899002A0803178D0003132B0803171C
:1000A0008F0083168C170C140000000083120C0DB7
:1000B0000E0D7F39031977280313A90003170D08C4
:1000C0000313AA0003170F080313AB0029080C1E23
:1000D000672899002A0803178D0003132B080317BC
:1000E0008F008D0A03198F0A031331280317031396
:1000F00008008C1E79281A08A8002808773C031DE0
:100100008D28D03003178D0000308F00031331206D
:10011000831686015530831286002808733C031D20
:100120009D28D53003178D0000308F000313312038
:1001300083168601AA30831286002808613C031DBD
:10014000AD28DA3003178D0000308F000313312003
:10015000831686014430831286002808643C031D00
:10016000BD28E03003178D0000308F0003133120CD
:10017000831686011130831286002808783C031DFF
:10018000CC28E53003178D0000308F000313312099
:1001900083168601831286018C128A110A121D2889
:1001A000413B6137FA308A060000D232E232F2393E
:1001B00061050D00493DF13AE932723261050D00E9
:1001C000C432F232633461050D00C432F432EE32CF
:1001D00072050D00840183131F308305813083165F
:1001E0009900A630980090308312980083161F144F
:1001F0009F141F159F118C16C03083128B04FF3083
:100200008316850083120508A700271C0D29831675
:100210008801FF3083128800112983168801831218
:060220008801FF286300C5
:023E00000800B8
:02400E00723FFF
:00000001FF
;PIC16F877
;CRC=575C  CREATED="07-ago.-21 15:34"
